:020000040800F2
:1000000000500020CD210008791800087F18000852
:10001000851800088B1800089118000800000000DF
:100020000000000000000000000000009718000819
:10003000A318000800000000AF180008BD18000851
:1000400015220008152200081522000815220008B4
:1000500015220008152200081522000815220008A4
:100060001522000815220008152200081522000894
:100070001522000815220008152200081522000884
:100080001522000815220008152200081522000874
:100090001522000815220008152200081522000864
:1000A0001522000815220008152200081522000854
:1000B0001522000815220008011900081522000861
:1000C0001522000815220008152200081522000834
:1000D0001522000815190008291900081522000822
:1000E0001522000815220008152200080000000053
:1000F0000000000000000000000000000000000000
:0C01000000000000000000005FF808F1A3
:1001100010B5054C237833B9044B13B10448AFF341
:1001200000800123237010BDF001002000000000BA
:10013000BCAA000808B5034B1BB103490348AFF341
:10014000008008BD00000000F4010020BCAA0008E7
:1001500010F8012B11F8013B012A28BF9A42F7D071
:10016000D01A7047034613F8012B002AFBD1181A46
:100170000138704781F0004102E000BF83F0004386
:1001800030B54FEA41044FEA430594EA050F08BF32
:1001900090EA020F1FBF54EA000C55EA020C7FEAF6
:1001A000645C7FEA655C00F0E2804FEA5454D4EB73
:1001B0005555B8BF6D420CDD2C4480EA020281EA3D
:1001C000030382EA000083EA010180EA020281EA75
:1001D0000303362D88BF30BD11F0004F4FEA0131C7
:1001E0004FF4801C4CEA113102D0404261EB4101D6
:1001F00013F0004F4FEA03334CEA133302D052425C
:1002000063EB430394EA050F00F0A780A4F1010417
:10021000D5F1200E0DDB02FA0EFC22FA05F2801851
:1002200041F1000103FA0EF2801843FA05F3594137
:100230000EE0A5F120050EF1200E012A03FA0EFCB6
:1002400028BF4CF0020C43FA05F3C01851EBE371E0
:1002500001F0004507D54FF0000EDCF1000C7EEBFD
:1002600000006EEB0101B1F5801F1BD3B1F5001F3B
:100270000CD349085FEA30004FEA3C0C04F101045A
:100280004FEA445212F5800F80F09A80BCF1004F83
:1002900008BF5FEA500C50F1000041EB045141EA05
:1002A000050130BD5FEA4C0C404141EB0101013CCE
:1002B00028BFB1F5801FE9D291F0000F04BF0146BD
:1002C0000020B1FA81F308BF2033A3F10B03B3F18F
:1002D00020020CDA0C3208DD02F1140CC2F10C021F
:1002E00001FA0CF021FA02F10CE002F11402D8BF7D
:1002F000C2F1200C01FA02F120FA0CFCDCBF41EA49
:100300000C019040E41AA2BF01EB0451294330BD17
:100310006FEA04041F3C1CDA0C340EDC04F11404F4
:10032000C4F1200220FA04F001FA02F340EA0300CB
:1003300021FA04F345EA030130BDC4F10C04C4F111
:10034000200220FA02F001FA04F340EA03002946F1
:1003500030BD21FA04F0294630BD94F0000F83F43B
:10036000801306BF81F480110134013D4EE77FEA1E
:10037000645C18BF7FEA655C29D094EA050F08BF6A
:1003800090EA020F05D054EA000C04BF194610464B
:1003900030BD91EA030F1EBF0021002030BD5FEA8F
:1003A000545C05D14000494128BF41F0004130BDB7
:1003B00014F580043CBF01F5801130BD01F000450B
:1003C00045F0FE4141F470014FF0000030BD7FEA7E
:1003D000645C1ABF194610467FEA655C1CBF0B4679
:1003E000024650EA013406BF52EA033591EA030F90
:1003F00041F4002130BD00BF90F0000F04BF002188
:10040000704730B54FF4806404F132044FF00005BA
:100410004FF0000150E700BF90F0000F04BF002133
:10042000704730B54FF4806404F1320410F0004599
:1004300048BF40424FF000013EE700BF42004FEA94
:10044000E2014FEA31014FEA02701FBF12F07F4311
:1004500093F07F4F81F06051704732F07F4208BFC8
:10046000704793F07F4F04BF41F40021704730B5CF
:100470004FF4607401F0004521F000411CE700BF1B
:1004800050EA010208BF704730B54FF000050AE09E
:1004900050EA010208BF704730B511F0004502D59F
:1004A000404261EB41014FF4806404F132045FEAA1
:1004B000915C3FF4D8AE4FF003025FEADC0C18BF4A
:1004C00003325FEADC0C18BF033202EBDC02C2F13C
:1004D000200300FA03FC20FA02F001FA03FE40EACE
:1004E0000E0021FA02F11444BDE600BF70B54FF0D2
:1004F000FF0C4CF4E06C1CEA11541DBF1CEA1355B0
:1005000094EA0C0F95EA0C0F00F0DEF82C4481EA17
:10051000030621EA4C5123EA4C5350EA013518BF37
:1005200052EA033541F4801143F4801338D0A0FB24
:1005300002CE4FF00005E1FB02E506F00042E0FBD1
:1005400003E54FF00006E1FB03569CF0000F18BFD7
:100550004EF0010EA4F1FF04B6F5007F64F540747F
:1005600004D25FEA4E0E6D4146EB060642EAC62112
:1005700041EA55514FEAC52040EA5E504FEACE2E7F
:10058000B4F1FD0C88BFBCF5E06F1ED8BEF1004F82
:1005900008BF5FEA500E50F1000041EB045170BDFE
:1005A00006F0004646EA010140EA020081EA030142
:1005B000B4EB5C04C2BFD4EB0C0541EA045170BD3E
:1005C00041F480114FF0000E013C00F3AB8014F1B8
:1005D000360FDEBF002001F0004170BDC4F1000401
:1005E000203C35DA0C341BDC04F11404C4F1200582
:1005F00000FA05F320FA04F001FA05F240EA0200DD
:1006000001F0004221F0004110EBD37021FA04F612
:1006100042EB06015EEA430E08BF20EAD37070BDCC
:10062000C4F10C04C4F1200500FA04F320FA05F02B
:1006300001FA04F240EA020001F0004110EBD3702D
:1006400041F100015EEA430E08BF20EAD37070BD9D
:10065000C4F1200500FA05F24EEA020E20FA04F376
:1006600001FA05F243EA020321FA04F001F0004125
:1006700021FA04F220EA020000EBD3705EEA430E96
:1006800008BF20EAD37070BD94F0000F0FD101F0C5
:100690000046400041EB010111F4801F08BF013CFE
:1006A000F7D041EA060195F0000F18BF704703F03C
:1006B0000046520043EB030313F4801F08BF013DC3
:1006C000F7D043EA0603704794EA0C0F0CEA13557F
:1006D00018BF95EA0C0F0CD050EA410618BF52EA39
:1006E0004306D1D181EA030101F000414FF000003F
:1006F00070BD50EA410606BF1046194652EA43064D
:1007000019D094EA0C0F02D150EA013613D195EAC0
:100710000C0F05D152EA03361CBF104619460AD108
:1007200081EA030101F0004141F0FE4141F4700112
:100730004FF0000070BD41F0FE4141F4780170BD02
:1007400070B54FF0FF0C4CF4E06C1CEA11541DBF67
:100750001CEA135594EA0C0F95EA0C0F00F0A7F869
:10076000A4EB050481EA030E52EA03354FEA013196
:1007700000F088804FEA03334FF0805545EA1313A9
:1007800043EA12634FEA022245EA111545EA106571
:100790004FEA00260EF000419D4208BF964244F108
:1007A000FD0404F5407402D25B084FEA3202B61A27
:1007B00065EB03055B084FEA32024FF480104FF4FB
:1007C000002CB6EB020E75EB030E22BFB61A75466F
:1007D00040EA0C005B084FEA3202B6EB020E75EB02
:1007E000030E22BFB61A754640EA5C005B084FEA6A
:1007F0003202B6EB020E75EB030E22BFB61A754637
:1008000040EA9C005B084FEA3202B6EB020E75EB41
:10081000030E22BFB61A754640EADC0055EA060E02
:1008200018D04FEA051545EA16754FEA06164FEA45
:10083000C30343EA52734FEAC2025FEA1C1CC0D1F1
:1008400011F4801F0BD141EA00014FF000004FF07E
:10085000004CB6E711F4801F04BF01430020B4F13F
:10086000FD0C88BFBCF5E06F3FF6AFAEB5EB030CF7
:1008700004BFB6EB020C5FEA500C50F1000041EBF4
:10088000045170BD0EF0004E4EEA113114EB5C04C1
:10089000C2BFD4EB0C0541EA045170BD41F4801194
:1008A0004FF0000E013C90E645EA060E8DE60CEA9C
:1008B000135594EA0C0F08BF95EA0C0F3FF43BAFB9
:1008C00094EA0C0F0AD150EA01347FF434AF95EA70
:1008D0000C0F7FF425AF104619462CE795EA0C0F54
:1008E00006D152EA03353FF4FDAE1046194622E721
:1008F00050EA410618BF52EA43067FF4C5AE50EAFB
:1009000041047FF40DAF52EA43057FF4EBAE12E7EA
:100910004FF0FF3C06E000BF4FF0010C02E000BFCB
:100920004FF0010C4DF804CD4FEA410C7FEA6C5CAE
:100930004FEA430C18BF7FEA6C5C1BD001B050EA51
:10094000410C0CBF52EA430C91EA030F02BF90EA3C
:10095000020F0020704710F1000F91EA030F58BFFB
:10096000994208BF90422CBFD8176FEAE37040F05D
:10097000010070474FEA410C7FEA6C5C02D150EAFB
:10098000013C07D14FEA430C7FEA6C5CD6D152EAB6
:10099000033CD3D05DF8040B704700BF844610467B
:1009A00062468C461946634600E000BF01B5FFF77A
:1009B000B7FF002848BF10F1000F01BD4DF808ED4A
:1009C000FFF7F4FF0CBF012000205DF808FB00BF1B
:1009D0004DF808EDFFF7EAFF34BF012000205DF875
:1009E00008FB00BF4DF808EDFFF7E0FF94BF0120C2
:1009F00000205DF808FB00BF4DF808EDFFF7CEFFC3
:100A000094BF012000205DF808FB00BF4DF808ED01
:100A1000FFF7C4FF34BF012000205DF808FB00BFD2
:100A20004FEA410C7FEA6C5C02D150EA013C0AD1EA
:100A30004FEA430C7FEA6C5C02D152EA033C02D1DC
:100A40004FF0000070474FF0010070474FEA41023D
:100A500012F5001215D211D56FF47873B3EB625210
:100A600012D94FEAC12343F0004343EA505311F037
:100A7000004F23FA02F018BF404270474FF00000C9
:100A8000704750EA013005D111F0004008BF6FF007
:100A9000004070474FF00000704700BF4FEA41022E
:100AA000B2F1E04324BFB3F5001CDCF1FE5C0DD9CC
:100AB00001F0004C4FEAC0024CEA5070B2F1004F16
:100AC00040EB830008BF20F00100704711F0804F19
:100AD00021D113F13872BCBF01F00040704741F4DE
:100AE00080114FEA5252C2F11802C2F1200C10FAE2
:100AF0000CF320FA02F018BF40F001004FEAC123C6
:100B00004FEAD32303FA0CFC40EA0C0023FA02F369
:100B10004FEA4303CCE77FEA625307D150EA01333F
:100B20001EBF4FF0FE4040F44000704701F000400F
:100B300040F0FE4040F40000704700BF4FF0FF3C23
:100B400006E000BF4FF0010C02E000BF4FF0010CC7
:100B50004DF804CD4FEA40024FEA41037FEA226C90
:100B600018BF7FEA236C11D001B052EA530C18BFB2
:100B700090EA010F58BFB2EB030088BFC81738BF17
:100B80006FEAE17018BF40F0010070477FEA226C05
:100B900002D15FEA402C05D17FEA236CE4D15FEA01
:100BA000412CE1D05DF8040B704700BF8446084635
:100BB0006146FFE70FB5FFF7C9FF002848BF10F1F6
:100BC000000F0FBD4DF808EDFFF7F4FF0CBF01203B
:100BD00000205DF808FB00BF4DF808EDFFF7EAFFC5
:100BE00034BF012000205DF808FB00BF4DF808ED80
:100BF000FFF7E0FF94BF012000205DF808FB00BF75
:100C00004DF808EDFFF7D2FF94BF012000205DF8FA
:100C100008FB00BF4DF808EDFFF7C8FF34BF012007
:100C200000205DF808FB00BF80B588B000AF07F179
:100C3000100300221A605A609A60DA602F4B9B6999
:100C40002E4A43F0200393612C4B9B6903F0200351
:100C5000FB60FB68294B9B69284A43F004039361BE
:100C6000264B9B6903F00403BB60BB68234B9B6965
:100C7000224A43F008039361204B9B6903F0080369
:100C80007B607B68002248F203011D4801F081FE71
:100C900000224FF400611B4801F07BFE48F2030381
:100CA0003B6101237B610023BB610123FB6107F1F1
:100CB00010031946124801F0D1FC47F630733B612E
:100CC00000237B610023BB6107F1100319460C4828
:100CD00001F0C4FC4FF400633B6101237B610023FE
:100CE000BB610123FB6107F110031946054801F0C0
:100CF000B5FC00BF2037BD4680BD00BF00100240DC
:100D0000000C01400008014080B588B000AF01F040
:100D100083FA00F077F800F0BBF8FFF785FF01F0E9
:100D20006DF901F095F900F083FB3149314800F08D
:100D3000F9FC0023FB611FE02F4B9B68BB602F4B2E
:100D40001B682F4AA2FB03239B0C4FF47A7203FB10
:100D500002F22A4B1B682A49A1FB03139B0C5B0878
:100D6000D31A7B60244B9B68BA68D31A7A689A427C
:100D7000F8D8FB690133FB61FB69312BDCD900F04A
:100D80002DFF0023BB611FE01B4B9B683B611B4B8E
:100D90001B681B4AA2FB03239B0C4FF47A7203FBD4
:100DA00002F2164B1B681649A1FB03139B0C5B0850
:100DB000D31AFB60104B9B683A69D31AFA689A42BF
:100DC000F8D8BB690133BB61BB69312BDCD94FF06B
:100DD00000037B6100F094FC002005F02DFA78619F
:100DE000786900F0ADF800F093F800F0F7FAF3E757
:100DF000D8AA0008C408002010E000E00400002089
:100E000083DE1B4380B590B000AF07F118032822A2
:100E10000021184606F061FE3B1D00221A605A6050
:100E20009A60DA601A610123BB614FF48033FB6181
:100E300000233B620123BB6202237B634FF48033B8
:100E4000BB634FF4E013FB6307F11803184601F08E
:100E5000B9FD0346002B01D000F0D6FC0F237B60C8
:100E60000223BB600023FB604FF480633B610023DF
:100E70007B613B1D0221184602F026F80346002B39
:100E800001D000F0C1FC00BF4037BD4680BD00006E
:100E900080B500AF0749002004F086FD002004F073
:100EA000EDFA00220121002004F088FC04F0C2FACF
:100EB00000BF80BD0C02002080B582B000AF78601A
:100EC000786804F071FF00BF0837BD4680BD80B56B
:100ED00082B000AF7860786804F02CFF00BF08375C
:100EE000BD4680BD80B500AF084B1B8801339AB268
:100EF000064B1A80054B1B88092B05D9002005F0ED
:100F0000B1F9024B00221A8000BF80BD54020020BC
:100F100080B500AF4FF48071084801F023FD03460F
:100F2000012B06D14FF6FF720121002004F046FC90
:100F300002E0002004F0D2FC00BF80BD000C0140A4
:100F400080B582B000AF78600C497868FFF744FE46
:100F50000346002B08D04FF6FF720121002004F059
:100F60002DFC04F073FA04E0002004F0B7FC04F058
:100F700079FA00BF0837BD4680BD00BF0000484277
:100F800080B500AF4FF40071474801F0EBFC034619
:100F9000012B0FD1454B1B7843F02003DAB2434BB2
:100FA0001A7000BF4FF400713F4801F0DBFC0346AC
:100FB000012BF7D04FF480613B4801F0D3FC03468E
:100FC000012B0FD1394B1B7843F01003DAB2374BAA
:100FD0001A7000BF4FF48061334801F0C3FC034630
:100FE000012BF7D04FF400612F4801F0BBFC034602
:100FF000012B0FD12D4B1B7843F00803DAB22B4B9A
:101000001A7000BF4FF40061274801F0ABFC0346A3
:10101000012BF7D04FF48051234801F0A3FC034685
:10102000012B0FD1214B1B7843F00403DAB21F4B85
:101030001A7000BF4FF480511B4801F093FC034627
:10104000012BF7D04FF40051174801F08BFC0346F9
:10105000012B0FD1154B1B7843F00203DAB2134B6F
:101060001A7000BF4FF400510F4801F07BFC03469B
:10107000012BF7D04FF480410B4801F073FC03467D
:10108000012B0FD1094B1B7843F00103DAB2074B58
:101090001A7000BF4FF48041034801F063FC03461F
:1010A000012BF7D000BF80BD000C0140A20400203E
:1010B00080B483B000AF03463960FB71FB790F2B1E
:1010C00004D13B6801221A7000232AE13B681B7897
:1010D000002B65D03B6800221A70FB79143B222B51
:1010E0005CD801A252F823F0951100089D11000868
:1010F000991100089D1100089D1100089D1100081C
:101100009D1100089D1100089D1100089D11000807
:101110009D1100089D110008751100089D1100081F
:10112000851100089D1100087D1100089D1100081F
:10113000811100089D1100089D1100089D110008F3
:101140009D1100089D1100089D1100089D110008C7
:101150009D1100089D110008791100089D110008DB
:10116000911100089D110008891100089D110008C7
:101170008D1100083123D4E03223D2E03323D0E0B4
:101180003423CEE03523CCE03623CAE03723C8E051
:101190003823C6E03923C4E03023C2E03F23C0E057
:1011A000FB793E2B00F2BC8001A252F823F000BF75
:1011B000AD120008211300082113000821130008B4
:1011C000211300082113000821130008211300082F
:1011D000211300082113000821130008211300081F
:1011E000211300082113000821130008211300080F
:1011F0001D1300082113000821130008191300080B
:10120000D112000821130008D512000809130008A4
:1012100021130008211300082113000821130008DE
:10122000F912000821130008FD120008211300081C
:10123000B112000821130008C11200082113000890
:10124000B912000821130008BD120008211300087C
:10125000D912000801130008E9120008151300084C
:10126000E11200080D130008E51200081113000830
:10127000B512000821130008CD1200082113000840
:10128000C512000821130008C91200082113000824
:10129000DD12000805130008F512000821130008EC
:1012A000ED12000821130008F1120008202338E095
:1012B000412336E0422334E0432332E0442330E04C
:1012C00045232EE046232CE047232AE0482328E04C
:1012D000492326E04A2324E04B2322E04C2320E04C
:1012E0004D231EE04E231CE04F231AE0502318E04C
:1012F000512316E0522314E0532312E0542310E04C
:1013000055230EE056230CE057230AE0582308E04B
:10131000592306E05A2304E02E2302E02C2300E0A8
:101320003F2318460C37BD4680BC704780B582B05D
:1013300000AF134B1B7813491846FFF7B9FE03465D
:10134000FB71FB79002B13D00F4B1B78FF2B0FD0B9
:101350000D4B1B785A1CD1B20B4A117019460B4A1F
:10136000FB795354084B1B781A46084B00219954BB
:10137000034B00221A7000BF0837BD4680BD00BF76
:10138000A2040020A1040020A0040020A00300204B
:1013900080B500AF0D490E48FEF7DAFE0346002B7C
:1013A00002D100F09DF808E00A4B1B789AB24FF08A
:1013B000FF330749084803F015FA064B00221A705C
:1013C000034B00221A7000BF80BD00BF04AB0008B1
:1013D000A0030020A0040020C408002080B500AFB6
:1013E000FFF7CEFD1021114801F0BCFA0346012B96
:1013F00009D1FFF79BFF00BF10210C4801F0B2FAA2
:101400000346012BF8D02021084801F0ABFA03462F
:10141000012B09D1FFF7BCFF00BF2021034801F0D9
:10142000A1FA0346012BF8D000BF80BD000C01409B
:1014300080B500AFFFF7A4FD1021214801F092FA1A
:101440000346012B09D1FFF771FF00BF10211C4893
:1014500001F088FA0346012BF8D02021184801F04A
:1014600081FA0346012BE5D116491748FEF770FEB5
:101470000346002B0AD11549154800F053F9154BC6
:1014800000221A70104B00221A7016E01249104800
:1014900000F048F911490E4800F044F90D4B0022C4
:1014A0001A70094B00221A7000BF2021044801F075
:1014B00059FA0346012BF8D0BCE700BF80BD00BF3E
:1014C000000C014008AB0008A00300200CAB000892
:1014D000C4080020A00400201CAB000834AB0008A6
:1014E000F0B58BB006AF4FF4FA73FB606E4B9B68A0
:1014F000BB606D4B9B687B60BA687B68D21A6B4B94
:101500001B686B49A1FB03139B09B2FBF3F33B6020
:101510003A68FB689A4280F0C280664800F088FC16
:101520000346012B15D1644B41F288321A6063499E
:10153000634800F0FDFB6349604804F0E9FE0346A0
:10154000002B03D1604B02221A6002E05E4B0122A5
:101550001A605E4800F06CFC0346012B15D1564B17
:1015600041F288321A605A49554800F0E1FB594966
:10157000574805F06BFA0346002B03D1564B022265
:101580001A6002E0544B01221A604F4B1B68022B79
:101590000CBF01230023DAB24F4B1B68022B0CBF98
:1015A00001230023DBB21343DBB2002B44D0454BB5
:1015B0001C69444B5D69434B9B69424AD26A41496D
:1015C000096B4048406B03900291019200932B46B7
:1015D00022464249424806F01DFA4149414800F07E
:1015E000A1F841493F4800F09DF8322200213C48D3
:1015F00006F073FA334B1B681846FEF71FFF0446CC
:101600000D46304B1B791E462E4B9B681846FEF745
:1016100015FF02460B462B49097B0491CDE90223B5
:10162000009622462B4631492D4806F0F3F92C4905
:101630002C4800F077F819E0234B1B68012B0CBFF6
:1016400001230023DAB2244B1B68012B0CBF0123BA
:101650000023DBB21343DBB2002B07D0244921481F
:1016600000F060F823491F4800F05CF8124B1B683B
:10167000002B3FF73EAF104B41F288321A60164BF9
:1016800000221A60144B1B680F4A13601A49154850
:1016900000F048F81949134800F044F829E700BF62
:1016A00000BF1437BD46F0BD10E000E0040000208C
:1016B000D34D621048AB0008000000205802002003
:1016C0004CAB0008200300209803002050AB00081A
:1016D000BC0200204C0300209C03002054AB0008F7
:1016E000640300200C09002074AB000878AB0008EC
:1016F0008CAB00089CAB0008ACAB0008BCAB00088E
:1017000080B500AF01220549054803F0EEF8034615
:10171000002B01D000F078F800BF80BD56020020F9
:10172000C408002080B584B000AF78603960002321
:10173000FB8102E0FB890133FB81FB893A6813449A
:101740001B78002BF6D1FA894FF0FF33396878689F
:1017500003F048F800BF1037BD4680BD80B586B0A5
:1017600000AF78607B681B68214A93423BD101221D
:101770002049214803F0B9F81E4B1B78412B32D188
:101780004FF6FF720121002004F018F803F05EFE0E
:1017900000237B611FE0194B9B683B61184B1B6862
:1017A000184AA2FB03239B0C4FF47A7203FB02F24C
:1017B000134B1B681349A1FB03139B0C5B08D31A43
:1017C000FB600E4B9B683A69D31AFA689A42F8D8C4
:1017D0007B6901337B617B69632BDCD9002004F0DA
:1017E0007DF803F03FFE00BF1837BD4680BD00BF47
:1017F0000038014056020020C408002010E000E03C
:101800000400002083DE1B4380B400AF72B600BF2B
:10181000FEE7000080B485B000AF154B9B69144A09
:1018200043F001039361124B9B6903F00103BB601A
:10183000BB680F4BDB690E4A43F08053D3610C4BFE
:10184000DB6903F080537B607B680A4B5B68FB605D
:10185000FB6823F0E063FB60FB6843F08063FB60A0
:10186000044AFB68536000BF1437BD4680BC704714
:10187000001002400000014080B400AFFEE780B4D9
:1018800000AFFEE780B400AFFEE780B400AFFEE734
:1018900080B400AFFEE780B400AF00BFBD4680BC9F
:1018A000704780B400AF00BFBD4680BC704780B4B5
:1018B00000AF00BFBD4680BC7047000080B500AFE0
:1018C0000D4B1B889BB2002B06D00B4B1B889BB289
:1018D000013B9AB2084B1A80084B1B68002B04DDB1
:1018E000064B1B68013B054A136000F0DBFCFFF769
:1018F000F9FA00BF80BD00BFA8040020000000204E
:1019000080B500AF024801F06DFF00BF80BD00BF91
:101910000C02002080B500AF024803F00BF800BFB6
:1019200080BD00BFC408002080B500AF034800F0B0
:1019300007FB024802F0FEFF00BF80BD0C0900203B
:1019400080B400AF01231846BD4680BC704780B507
:1019500082B000AF7860396006F012F903461622B3
:101960001A604FF0FF3318460837BD4680BD80B57A
:1019700082B000AF78604FF0FF317868FFF7E7FF83
:10198000FEE780B586B000AFF860B9607A600023EA
:101990007B610AE0AFF300800146BB685A1CBA6065
:1019A000CAB21A707B6901337B617A697B689A429B
:1019B000F0DB7B6818461837BD4680BD80B586B021
:1019C00000AFF860B9607A6000237B6109E0BB6812
:1019D0005A1CBA601B781846AFF300807B6901334C
:1019E0007B617A697B689A42F1DB7B68184618371D
:1019F000BD4680BD80B483B000AF78604FF0FF3348
:101A000018460C37BD4680BC704780B483B000AF29
:101A1000786039603B684FF400525A6000231846E2
:101A20000C37BD4680BC704780B483B000AF78608F
:101A3000012318460C37BD4680BC704780B485B082
:101A400000AFF860B9607A60002318461437BD46CD
:101A500080BC704780B586B000AF7860144A154BE3
:101A6000D31A7B617B693B61134B1B68002B02D14E
:101A7000114B124A1A60104B1A687B6813443A697A
:101A80009A4207D206F07CF803460C221A604FF007
:101A9000FF3309E0084B1B68FB60074B1A687B6843
:101AA0001344054A1360FB6818461837BD4680BDCD
:101AB0000050002000040000A4040020E80A0020D8
:101AC00080B400AF00BFBD4680BC704780B58AB00F
:101AD00000AF786007F1180300221A605A609A601C
:101AE000DA607B681B68B3F1804F0CD1204BDB6957
:101AF0001F4A43F00103D3611D4BDB6903F001036F
:101B00007B617B6930E07B681B681A4A93422BD16A
:101B1000174BDB69164A43F00403D361144BDB69AE
:101B200003F004033B613B69114B9B69104A43F08E
:101B3000080393610E4B9B6903F00803FB60FB688D
:101B40004023BB610023FB6100233B6207F11803C4
:101B50001946094800F082FD002200211E2000F0F5
:101B600094FC1E2000F0ADFC00BF2837BD4680BDB0
:101B70000010024000080040000C014080B588B011
:101B800000AF786007F1100300221A605A609A6073
:101B9000DA607B681B68B3F1804F17D10D4B9B69EE
:101BA0000C4A43F0040393610A4B9B6903F004035E
:101BB000FB60FB6802233B6102237B610223FB6124
:101BC00007F110031946044800F048FD00BF203714
:101BD000BD4680BD001002400008014080B400AF47
:101BE0000C4B0D4A1A600D4B0D4A1A600D4B1B68C9
:101BF0005A690C4B1B6842F001025A61094B1B6881
:101C0000DA68084B1B6842F02002DA6000BFBD466C
:101C100080BC7047BC080020AC040020C008002035
:101C2000B40600200C09002080B485B000AF034644
:101C30003960FB713B68D3F800320133C3F308030A
:101C4000FB603B68D3F80422FB689A4209D03B68EA
:101C5000D3F800323A68F979D154FA683B68C3F88E
:101C6000002200BF1437BD4680BC704780B483B0EB
:101C700000AF134B1B68D3F80022114B1B68D3F83D
:101C800004329A4202D14FF0FF3313E00C4B1A6832
:101C90000B4B1B68D3F80432D35CFB71084B1B68F9
:101CA000D3F804325A1C064B1B68C2F30802C3F86F
:101CB0000422FB7918460C37BD4680BC704700BF34
:101CC000BC08002080B400AF0A4B1B68D3F8003278
:101CD0009AB2084B1B68D3F804329BB2D31A9BB25A
:101CE00003F500739BB2C3F308031846BD4680BCDE
:101CF000704700BFBC08002080B400AF0B4B1B68CE
:101D0000D3F80022094B1B68D3F804329A4202D15F
:101D10004FF0FF3306E0054B1A68044B1B68D3F8FD
:101D20000432D35C1846BD4680BC7047BC08002016
:101D300080B586B000AF7860396000237B61786839
:101D4000FEF710FA0346FB6000233B611EE0364BB2
:101D50001968354B1B68D3F804223B693868034483
:101D60008A5C1A70304B1B68D3F804325A1C2E4B15
:101D70001B68C2F30802C3F804223B6901333B61CC
:101D800000BFFFF79FFF0346002BFAD0FFF7B4FF19
:101D900001467B697A6813441B789942D7D127E0C2
:101DA0007B6901337B61FFF761FF01463B695A1C88
:101DB0003A611A463B681344CAB21A707A69FB68E2
:101DC0009A4201D101232AE0184B4FF4FA721A808B
:101DD00000BFFFF777FF0346002B03D1134B1B888F
:101DE000002BF6D1114B1B88002B01D1002316E0EC
:101DF000FFF782FF01467B697A6813441B7899429A
:101E0000CED07A69FB689A4202D000237B619DE7BD
:101E10007A69FB689A4201D1012300E00023184649
:101E20001837BD4680BD00BFBC080020A8040020B4
:101E300080B584B000AF78600023FB607868FEF75F
:101E400091F90346BB603C4B4FF4FA721A8000BF15
:101E5000FFF738FF0346002B03D1374B1B88002BBD
:101E6000F6D1354B1B88002B19D1002360E0334B92
:101E70001B68D3F80422314B1B68D3F800329A4216
:101E80000BD02E4B1B68D3F804325A1C2B4B1B680B
:101E9000C2F30802C3F8042201E0002348E0FFF780
:101EA0002BFF0146FB687A6813441B789942DED108
:101EB00027E0FB680133FB60204B1B68D3F804323A
:101EC0005A1C1E4B1B68C2F30802C3F80422FA68AE
:101ED000BB689A4201D101232AE0174B4FF4FA72F2
:101EE0001A8000BFFFF7EEFE0346002B03D1124B12
:101EF0001B88002BF6D1104B1B88002B01D100232F
:101F000016E0FFF7F9FE0146FB687A6813441B7878
:101F10009942CED0FA68BB689A4202D00023FB6097
:101F200091E7FA68BB689A4201D1012300E00023DF
:101F300018461037BD4680BDA8040020BC0800200C
:101F400080B586B000AF78607B681B681B687B61DA
:101F50007B681B68DB683B617B6903F02003002B17
:101F600013D03B6903F02003002B0ED07B681B6865
:101F70001B687B681B685B68FB731E4B1A68FB7BE6
:101F800011461846FFF750FE31E07B6903F08003ED
:101F9000002B2CD03B6903F08003002B27D0164B7D
:101FA000D3F80022144BD3F804329A4208D17B684C
:101FB0001B68DA687B681B6822F08002DA6015E033
:101FC0000D4BD3F804320C4AD35CBB730A4BD3F8E5
:101FD00004320133C3F30803074AC2F804327B68B2
:101FE0001B681B687B681B68BA7B5A6000BF183788
:101FF000BD4680BDBC080020B406002080B500AFFF
:10200000114B124A1A60104B4FF416525A600E4B85
:1020100000229A600C4B0022DA600B4B00221A61FE
:10202000094B0C225A61084B00229A61064B002290
:10203000DA61054802F086FB0346002B01D0FFF76A
:10204000E3FB00BF80BD00BFC40800200038014092
:1020500080B500AF114B124A1A60104B4FF4165264
:102060005A600E4B00229A600C4B0022DA600B4B38
:1020700000221A61094B0C225A61084B00229A6116
:10208000064B0022DA61054802F05CFB0346002B98
:1020900001D0FFF7B9FB00BF80BD00BF0C090020D5
:1020A0000044004080B58AB000AF786007F11803A3
:1020B00000221A605A609A60DA607B681B683F4AA7
:1020C00093423AD13E4B9B693D4A43F4804393612E
:1020D0003B4B9B6903F480437B617B69384B9B6975
:1020E000374A43F004039361354B9B6903F00403C3
:1020F0003B613B694FF40073BB610223FB61032327
:102100007B6207F1180319462E4800F0A7FA4FF436
:102110008063BB610023FB6100233B6207F118036E
:102120001946284800F09AFA00220021252000F0E4
:10213000ACF9252000F0C5F93CE07B681B68224A19
:10214000934237D11E4BDB691D4A43F40033D36100
:102150001B4BDB6903F40033FB60FB68184B9B6986
:10216000174A43F004039361154B9B6903F0040382
:10217000BB60BB680423BB610223FB6103237B625A
:1021800007F1180319460F4800F068FA0823BB61ED
:102190000023FB6100233B6207F11803194609483D
:1021A00000F05CFA00220021262000F06EF92620C3
:1021B00000F087F900BF2837BD4680BD00380140D8
:1021C000001002400008014000440040FFF778FC86
:1021D0000B480C490C4A002302E0D458C450043385
:1021E000C4188C42F9D3094A094C002301E013605A
:1021F0000432A242FBD305F0C9FCFEF785FD70470F
:1022000000000020F0010020E8AF0008F0010020ED
:10221000E40A0020FEE7000080B500AF084B1B6811
:10222000074A43F010031360032000F023F90F2046
:1022300000F008F8FFF7EEFA0023184680BD00BF53
:102240000020024080B582B000AF7860124B1A685F
:10225000124B1B7819464FF47A73B3FBF1F3B2FBC0
:10226000F3F3184600F03BF90346002B01D001239D
:102270000EE07B680F2B0AD8002279684FF0FF3000
:1022800000F003F9064A7B681360002300E0012395
:1022900018460837BD4680BD040000200C00002011
:1022A0000800002080B400AF054B1B781A46054B90
:1022B0001B681344034A136000BFBD4680BC7047CF
:1022C0000C0000205409002080B400AF024B1B68B2
:1022D0001846BD4680BC70475409002080B485B0C4
:1022E00000AF78607B6803F00703FB600C4BDB6892
:1022F000BB60BA684FF6FF031340BB60FB681A026D
:10230000BB68134343F0BF6343F40033BB60044A2C
:10231000BB68D36000BF1437BD4680BC704700BFA8
:1023200000ED00E080B400AF044BDB681B0A03F053
:1023300007031846BD4680BC704700BF00ED00E0B3
:1023400080B483B000AF0346FB7197F90730002BD0
:102350000BDBFB7903F01F02064997F907305B0995
:10236000012000FA02F241F8232000BF0C37BD46DD
:1023700080BC704700E100E080B483B000AF03464A
:102380003960FB7197F90730002B0ADB3B68DAB242
:102390000C4997F907301201D2B20B4483F800239D
:1023A0000AE03B68DAB20849FB7903F00F03043B0B
:1023B0001201D2B20B441A7600BF0C37BD4680BC66
:1023C000704700BF00E100E000ED00E080B489B09C
:1023D00000AFF860B9607A60FB6803F00703FB6147
:1023E000FB69C3F10703042B28BF0423BB61FB690E
:1023F0000433062B02D9FB69033B00E000237B6119
:102400004FF0FF32BB6902FA03F3DA43BB681A40AC
:102410007B699A404FF0FF317B6901FA03F3D9439E
:102420007B680B40134318462437BD4680BC704779
:1024300080B582B000AF78607B68013BB3F1807FEC
:1024400001D301230FE00A4A7B68013B53600F214F
:102450004FF0FF30FFF790FF054B00229A60044BCE
:1024600007221A60002318460837BD4680BD00BF0A
:1024700010E000E080B582B000AF78607868FFF7C8
:102480002DFF00BF0837BD4680BD80B586B000AFC8
:102490000346B9607A60FB7300237B61FFF742FF5C
:1024A00078617A68B9687869FFF790FF024697F912
:1024B0000F3011461846FFF75FFF00BF1837BD46C3
:1024C00080BD80B582B000AF0346FB7197F907303D
:1024D0001846FFF735FF00BF0837BD4680BD80B501
:1024E00082B000AF78607868FFF7A2FF0346184615
:1024F0000837BD4680BD80B485B000AF786000234A
:10250000FB737B6893F82130DBB2022B08D07B6829
:1025100004229A637B68002283F82020012320E0B4
:102520007B681B681A687B681B6822F00E021A60C1
:102530007B681B681A687B681B6822F001021A60BE
:102540007B681A6C7B68DB6B012101FA02F25A602E
:102550007B68012283F821207B68002283F82020F9
:10256000FB7B18461437BD4680BC704780B584B0ED
:1025700000AF78600023FB737B6893F82130DBB2F7
:10258000022B05D07B6804229A630123FB7351E080
:102590007B681B681A687B681B6822F00E021A6051
:1025A0007B681B681A687B681B6822F001021A604E
:1025B0007B681B68224A934229D07B681B68214AAA
:1025C000934222D07B681B681F4A93421AD07B68D3
:1025D0001B681E4A934212D07B681B681C4A9342B8
:1025E0000AD07B681B681B4A934202D14FF48013C8
:1025F0000EE04FF080730BE04FF4803308E04FF4AF
:10260000805305E04FF4807302E0102300E00123C3
:10261000114A53607B68012283F821207B680022E5
:1026200083F820207B685B6B002B03D07B685B6B9F
:1026300078689847FB7B18461037BD4680BD00BFC1
:10264000080002401C0002403000024044000240EA
:10265000580002406C0002400000024080B48BB081
:1026600000AF7860396000237B6200233B6269E140
:1026700001227B6A02FA03F3FB613B681B68FA697B
:102680001340BB61BA69FB699A4240F058813B68CC
:102690005B689A4A93425ED0984A934275D8984AAA
:1026A000934258D0964A93426FD8964A934252D05A
:1026B000944A934269D8944A93424CD0924A9342A6
:1026C00063D8924A934246D0904A93425DD8122BE7
:1026D0002AD8122B59D801A252F823F05727000804
:1026E0003127000843270008852700088B270008AA
:1026F0008B2700088B2700088B2700088B270008F2
:102700008B2700088B2700088B2700088B270008E1
:102710008B2700088B2700088B2700088B270008D1
:10272000392700084D270008794A934213D02CE03E
:102730003B68DB683B6229E03B68DB6804333B6253
:1027400024E03B68DB6808333B621FE03B68DB68E2
:102750000C333B621AE03B689B68002B02D10423D8
:102760003B6213E03B689B68012B05D108233B6269
:102770007B68FA691A6109E008233B627B68FA69A1
:102780005A6103E000233B6200E000BFBB69FF2BFE
:1027900001D87B6801E07B6804337B61BB69FF2B58
:1027A00002D87B6A9B0002E07B6A083B9B003B618E
:1027B0007B691A680F213B6901FA03F3DB431A4076
:1027C000396A3B6901FA03F31A437B691A603B6873
:1027D0005B6803F08053002B00F0B1804D4B9B6988
:1027E0004C4A43F0010393614A4B9B6903F0010398
:1027F000BB60BB68484A7B6A9B08023352F82330AF
:10280000FB607B6A03F003039B000F2202FA03F3D1
:10281000DB43FA681340FB607B68404A934213D065
:102820007B683F4A93420DD07B683E4A934207D073
:102830007B683D4A934201D1032306E0042304E070
:10284000022302E0012300E000237A6A02F003027F
:1028500092009340FA681343FB602F497B6A9B0800
:102860000233FA6841F823203B685B6803F4801365
:10287000002B06D02D4B9A682C49BB6913438B6003
:1028800006E02A4B9A68BB69DB43284913408B60FA
:102890003B685B6803F40013002B06D0234BDA6817
:1028A0002249BB691343CB6006E0204BDA68BB6961
:1028B000DB431E491340CB603B685B6803F4003385
:1028C000002B06D0194B5A681849BB6913434B605B
:1028D00006E0164B5A68BB69DB43144913404B6052
:1028E0003B685B6803F48033002B21D00F4B1A68E0
:1028F0000E49BB6913430B6021E000BF000032109A
:102900000000311000002210000021100000121001
:1029100000001110001002400000014000080140BA
:10292000000C01400010014000140140000401406F
:102930000B4B1A68BB69DB43094913400B607B6A88
:1029400001337B623B681A687B6A22FA03F3002B2F
:102950007FF48EAE00BF00BF2C37BD4680BC7047F1
:102960000004014080B485B000AF78600B467B80E6
:102970007B689A687B881340002B02D00123FB738D
:1029800001E00023FB73FB7B18461437BD4680BC77
:10299000704780B483B000AF78600B467B801346ED
:1029A0007B707B78002B03D07A887B681A6103E008
:1029B0007B881A047B681A6100BF0C37BD4680BC57
:1029C0007047000080B586B000AF78607B68002B50
:1029D00001D1012372E27B681B6803F00103002B25
:1029E00000F08780924B5B6803F00C03042B0CD043
:1029F0008F4B5B6803F00C03082B12D18C4B5B6888
:102A000003F48033B3F5803F0BD1894B1B6803F48B
:102A10000033002B6CD07B685B68002B68D10123EE
:102A20004CE27B685B68B3F5803F06D1804B1B6846
:102A30007F4A43F4803313602EE07B685B68002B91
:102A40000CD17B4B1B687A4A23F480331360784B9C
:102A50001B68774A23F4802313601DE07B685B6862
:102A6000B3F5A02F0CD1724B1B68714A43F480233D
:102A700013606F4B1B686E4A43F4803313600BE0A6
:102A80006B4B1B686A4A23F480331360684B1B68E6
:102A9000674A23F4802313607B685B68002B13D0A4
:102AA000FFF712FC386108E0FFF70EFC02463B69B5
:102AB000D31A642B01D9032300E25D4B1B6803F496
:102AC0000033002BF0D014E0FFF7FEFB386108E084
:102AD000FFF7FAFB02463B69D31A642B01D90323A3
:102AE000ECE1534B1B6803F40033002BF0D100E002
:102AF00000BF7B681B6803F00203002B63D04C4BC4
:102B00005B6803F00C03002B0BD0494B5B6803F0B0
:102B10000C03082B1CD1464B5B6803F48033002B5D
:102B200016D1434B1B6803F00203002B05D07B68D2
:102B30001B69012B01D00123C0E13D4B1B6823F031
:102B4000F8027B685B69DB00394913430B603AE0AC
:102B50007B681B69002B20D0364B01221A60FFF7DF
:102B6000B3FB386108E0FFF7AFFB02463B69D31ABD
:102B7000022B01D90323A1E12D4B1B6803F00203B3
:102B8000002BF0D02A4B1B6823F0F8027B685B69AE
:102B9000DB00274913430B6015E0264B00221A6027
:102BA000FFF792FB386108E0FFF78EFB02463B69B6
:102BB000D31A022B01D9032380E11D4B1B6803F0BC
:102BC0000203002BF0D17B681B6803F00803002B85
:102BD0003AD07B689B69002B19D0174B01221A60F1
:102BE000FFF772FB386108E0FFF76EFB02463B69B6
:102BF000D31A022B01D9032360E10D4B5B6A03F06A
:102C00000203002BF0D0012000F0CEFA1CE00A4BAA
:102C100000221A60FFF758FB38610FE0FFF754FB02
:102C200002463B69D31A022B08D9032346E100BFB1
:102C3000001002400000424280044242924B5B6A14
:102C400003F00203002BE9D17B681B6803F0040347
:102C5000002B00F0A6800023FB758B4BDB6903F093
:102C60008053002B0DD1884BDB69874A43F080539A
:102C7000D361854BDB6903F08053BB60BB680123E4
:102C8000FB75824B1B6803F48073002B18D17F4BBC
:102C90001B687E4A43F480731360FFF715FB3861AD
:102CA00008E0FFF711FB02463B69D31A642B01D9F8
:102CB000032303E1754B1B6803F48073002BF0D0F2
:102CC0007B68DB68012B06D16F4B1B6A6E4A43F0B1
:102CD000010313622DE07B68DB68002B0CD16A4B8B
:102CE0001B6A694A23F001031362674B1B6A664A39
:102CF00023F0040313621CE07B68DB68052B0CD116
:102D0000614B1B6A604A43F0040313625E4B1B6A0B
:102D10005D4A43F0010313620BE05B4B1B6A5A4AA6
:102D200023F001031362584B1B6A574A23F0040334
:102D300013627B68DB68002B15D0FFF7C5FA38619A
:102D40000AE0FFF7C1FA02463B69D31A41F2883222
:102D5000934201D90323B1E04B4B1B6A03F00203FA
:102D6000002BEED014E0FFF7AFFA38610AE0FFF76E
:102D7000ABFA02463B69D31A41F28832934201D939
:102D800003239BE0404B1B6A03F00203002BEED1B0
:102D9000FB7D012B05D13C4BDB693B4A23F0805383
:102DA000D3617B68DB69002B00F08780364B5B6862
:102DB00003F00C03082B61D07B68DB69022B46D142
:102DC000334B00221A60FFF77FFA386108E0FFF703
:102DD0007BFA02463B69D31A022B01D903236DE02B
:102DE000294B1B6803F00073002BF0D17B681B6A32
:102DF000B3F5803F08D1244B5B6823F400327B6835
:102E00009B68214913434B601F4B5B6823F474128A
:102E10007B68196A7B685B6A0B431B4913434B60F1
:102E20001B4B01221A60FFF74FFA386108E0FFF7E9
:102E30004BFA02463B69D31A022B01D903233DE02A
:102E4000114B1B6803F00073002BF0D035E0104BE2
:102E500000221A60FFF738FA386108E0FFF734FA09
:102E600002463B69D31A022B01D9032326E0064B05
:102E70001B6803F00073002BF0D11EE07B68DB6958
:102E8000012B07D1012319E000100240007000401F
:102E9000600042420B4B5B68FB60FB6803F48032CE
:102EA0007B681B6A9A4206D1FB6803F470127B6848
:102EB0005B6A9A4201D0012300E0002318461837CC
:102EC000BD4680BD0010024080B584B000AF786080
:102ED00039607B68002B01D10123D0E06A4B1B686D
:102EE00003F007033A689A4210D9674B1B6823F036
:102EF000070265493B6813430B60634B1B6803F093
:102F000007033A689A4201D00123B8E07B681B6846
:102F100003F00203002B20D07B681B6803F004033E
:102F2000002B05D0594B5B68584A43F4E06353606B
:102F30007B681B6803F00803002B05D0534B5B68CC
:102F4000524A43F460535360504B5B6823F0F002E5
:102F50007B689B684D4913434B607B681B6803F09B
:102F60000103002B40D07B685B68012B07D1474BE6
:102F70001B6803F40033002B15D101237FE07B682D
:102F80005B68022B07D1414B1B6803F00073002BD9
:102F900009D1012373E03D4B1B6803F00203002BB2
:102FA00001D101236BE0394B5B6823F003027B689E
:102FB0005B68364913434B60FFF786F9F8600AE017
:102FC000FFF782F90246FB68D31A41F28832934236
:102FD00001D9032353E02D4B5B6803F00C027B689F
:102FE0005B689B009A42EBD1274B1B6803F00703F9
:102FF0003A689A4210D2244B1B6823F007022249F8
:103000003B6813430B60204B1B6803F007033A68CF
:103010009A4201D0012332E07B681B6803F004036D
:10302000002B08D0194B5B6823F4E0627B68DB68F7
:10303000164913434B607B681B6803F00803002BA1
:1030400009D0124B5B6823F460527B681B69DB007C
:103050000E4913434B6000F021F802460B4B5B68AE
:103060001B0903F00F030A49CB5C22FA03F3094A58
:103070001360094B1B681846FFF7E4F80023184655
:103080001037BD4680BD00BF002002400010024046
:10309000D8AB0008040000200800002080B487B0EE
:1030A00000AF0023FB600023BB6000237B61002393
:1030B0007B6000233B611E4B5B68FB60FB6803F099
:1030C0000C03042B02D0082B03D027E0194B3B61E3
:1030D00027E0FB689B0C03F00F03174AD35C7B606F
:1030E000FB6803F48033002B10D0114B5B685B0C42
:1030F00003F00103114AD35CBB607B680D4A03FBFC
:1031000002F2BB68B2FBF3F37B6104E07B680C4A1C
:1031100002FB03F37B617B693B6102E0054B3B6192
:1031200000BF3B6918461C37BD4680BC704700BFD6
:103130000010024000127A00F0AB000800AC00085A
:1031400000093D0080B400AF024B1B681846BD4625
:1031500080BC70470400002080B500AFFFF7F2FF8D
:103160000246054B5B681B0A03F007030349CB5C6F
:1031700022FA03F3184680BD00100240E8AB0008B5
:1031800080B500AFFFF7DEFF0246054B5B68DB0A48
:1031900003F007030349CB5C22FA03F3184680BD12
:1031A00000100240E8AB000880B485B000AF786042
:1031B0000A4B1B680A4AA2FB03235B0A7A6802FBDC
:1031C00003F3FB6000BFFB685A1EFA60002BF9D1C5
:1031D00000BF00BF1437BD4680BC7047040000200C
:1031E000D34D621080B582B000AF78607B68002B51
:1031F00001D1012341E07B6893F83D30DBB2002B25
:1032000006D17B68002283F83C207868FEF75EFCDC
:103210007B68022283F83D207B681A687B68043350
:103220001946104600F06CFE7B68012283F84620A8
:103230007B68012283F83E207B68012283F83F20CF
:103240007B68012283F840207B68012283F84120BB
:103250007B68012283F842207B68012283F84320A7
:103260007B68012283F844207B68012283F8452093
:103270007B68012283F83D20002318460837BD46AD
:1032800080BD000080B485B000AF78607B6893F8A3
:103290003D30DBB2012B01D001233AE07B680222F2
:1032A00083F83D207B681B68DA687B681B6842F006
:1032B0000102DA607B681B68184A93420ED07B6873
:1032C0001B68B3F1804F09D07B681B68144A934296
:1032D00004D07B681B68134A934211D17B681B683A
:1032E0009B6803F00703FB60FB68062B10D07B682C
:1032F0001B681A687B681B6842F001021A6007E0CD
:103300007B681B681A687B681B6842F001021A60C0
:10331000002318461437BD4680BC7047002C01407E
:10332000000400400008004080B582B000AF786023
:103330007B68002B01D1012341E07B6893F83D308D
:10334000DBB2002B06D17B68002283F83C20786832
:1033500000F039F87B68022283F83D207B681A6808
:103360007B6804331946104600F0CAFD7B680122D1
:1033700083F846207B68012283F83E207B68012287
:1033800083F83F207B68012283F840207B6801227C
:1033900083F841207B68012283F842207B68012268
:1033A00083F843207B68012283F844207B68012254
:1033B00083F845207B68012283F83D2000231846CE
:1033C0000837BD4680BD80B483B000AF786000BFD1
:1033D0000C37BD4680BC704780B584B000AF7860C4
:1033E00039603B68002B09D17B6893F83E30DBB233
:1033F000012B14BF01230023DBB222E03B68042B26
:1034000009D17B6893F83F30DBB2012B14BF012355
:103410000023DBB215E03B68082B09D17B6893F8E9
:103420004030DBB2012B14BF01230023DBB208E0E4
:103430007B6893F84130DBB2012B14BF01230023DA
:10344000DBB2002B01D001235EE03B68002B04D1EE
:103450007B68022283F83E2013E03B68042B04D1F2
:103460007B68022283F83F200BE03B68082B04D1E5
:103470007B68022283F8402003E07B68022283F805
:1034800041207B681B6801223968184601F0C5F8A5
:103490007B681B681E4A934207D17B681B685A6C85
:1034A0007B681B6842F400425A647B681B68184AB8
:1034B00093420ED07B681B68B3F1804F09D07B68C4
:1034C0001B68144A934204D07B681B68124A9342DB
:1034D00011D17B681B689B6803F00703FB60FB68E6
:1034E000062B10D07B681B681A687B681B6842F04B
:1034F00001021A6007E07B681B681A687B681B681A
:1035000042F001021A60002318461037BD4680BD04
:10351000002C0140000400400008004080B582B04B
:1035200000AF78607B68002B01D1012341E07B680C
:1035300093F83D30DBB2002B06D17B68002283F884
:103540003C20786800F039F87B68022283F83D203F
:103550007B681A687B6804331946104600F0D0FC7B
:103560007B68012283F846207B68012283F83E2095
:103570007B68012283F83F207B68012283F840208A
:103580007B68012283F841207B68012283F8422076
:103590007B68012283F843207B68012283F8442062
:1035A0007B68012283F845207B68012283F83D2057
:1035B000002318460837BD4680BD80B483B000AFF5
:1035C000786000BF0C37BD4680BC704780B584B0C2
:1035D00000AF786039600023FB733B68002B04D197
:1035E0007B6893F83E30DBB213E03B68042B04D1D8
:1035F0007B6893F83F30DBB20BE03B68082B04D1CB
:103600007B6893F84030DBB203E07B6893F841308D
:10361000DBB2BB733B68002B04D17B6893F842306C
:10362000DBB213E03B68042B04D17B6893F8433092
:10363000DBB20BE03B68082B04D17B6893F8443085
:10364000DBB203E07B6893F84530DBB27B73BB7B76
:10365000012B02D17B7B012B01D00123B8E03B6819
:10366000002B04D17B68022283F83E2013E03B68E4
:10367000042B04D17B68022283F83F200BE03B68D7
:10368000082B04D17B68022283F8402003E07B688A
:10369000022283F841203B68002B04D17B68022280
:1036A00083F8422013E03B68042B04D17B6802229C
:1036B00083F843200BE03B68082B04D17B6802228F
:1036C00083F8442003E07B68022283F845203B68AE
:1036D0000C2B41D801A252F823F000BF113700088B
:1036E00059370008593700085937000823370008B0
:1036F000593700085937000859370008353700088E
:10370000593700085937000859370008473700086B
:103710007B681B68DA687B681B6842F00202DA602B
:103720001DE07B681B68DA687B681B6842F0040256
:10373000DA6014E07B681B68DA687B681B6842F01B
:103740000802DA600BE07B681B68DA687B681B683C
:1037500042F01002DA6002E00123FB7300BFFB7B42
:10376000002B34D17B681B6801223968184600F0B1
:1037700054FF7B681B68184A93420ED07B681B6815
:10378000B3F1804F09D07B681B68144A934204D080
:103790007B681B68124A934211D17B681B689B6847
:1037A00003F00703BB60BB68062B10D07B681B6867
:1037B0001A687B681B6842F001021A6007E07B68A8
:1037C0001B681A687B681B6842F001021A60FB7B69
:1037D00018461037BD4680BD002C01400004004053
:1037E0000008004080B582B000AF78607B681B683D
:1037F0001B6903F00203022B22D17B681B68DB6884
:1038000003F00203022B1BD17B681B686FF00202DE
:103810001A617B6801221A777B681B689B6903F039
:103820000303002B03D07868FDF746FB05E07868BA
:1038300000F04AFB786800F050FB7B6800221A77A2
:103840007B681B681B6903F00403042B22D17B688F
:103850001B68DB6803F00403042B1BD17B681B6827
:103860006FF004021A617B6802221A777B681B687A
:103870009B6903F44073002B03D07868FDF71CFBB1
:1038800005E0786800F020FB786800F026FB7B6894
:1038900000221A777B681B681B6903F00803082B5A
:1038A00022D17B681B68DB6803F00803082B1BD15F
:1038B0007B681B686FF008021A617B6804221A7724
:1038C0007B681B68DB6903F00303002B03D0786877
:1038D000FDF7F2FA05E0786800F0F6FA786800F093
:1038E000FCFA7B6800221A777B681B681B6903F06F
:1038F0001003102B22D17B681B68DB6803F01003D8
:10390000102B1BD17B681B686FF010021A617B685B
:1039100008221A777B681B68DB6903F44073002B6D
:1039200003D07868FDF7C8FA05E0786800F0CCFAB3
:10393000786800F0D2FA7B6800221A777B681B68EF
:103940001B6903F00103012B0ED17B681B68DB6848
:1039500003F00103012B07D17B681B686FF00102A4
:103960001A617868FDF7B3FA7B681B681B6903F07E
:103970008003802B0ED17B681B68DB6803F080031B
:10398000802B07D17B681B686FF080021A61786812
:1039900000F0CFFE7B681B681B6903F04003402BDF
:1039A0000ED17B681B68DB6803F04003402B07D116
:1039B0007B681B686FF040021A61786800F096FA25
:1039C0007B681B681B6903F02003202B0ED17B68EA
:1039D0001B68DB6803F02003202B07D17B681B6882
:1039E0006FF020021A61786800F09AFE00BF083775
:1039F000BD4680BD80B586B000AFF860B9607A6022
:103A00000023FB75FB6893F83C30012B01D10223A6
:103A100088E0FB68012283F83C207B68002B1BD1E7
:103A2000FB681868BB681968BB685A68BB68DB68C4
:103A300000F050FCFB681B689A69FB681B6822F069
:103A40000C029A61FB681B689969BB689A68FB68FD
:103A50001B680A439A6160E07B68042B1CD1FB68F9
:103A60001868BB681968BB685A68BB68DB6800F0F7
:103A7000B9FCFB681B689A69FB681B6822F440620A
:103A80009A61FB681B689969BB689B681A02FB68AE
:103A90001B680A439A6140E07B68082B1BD1FB68D6
:103AA0001868BB681968BB685A68BB68DB6800F0B7
:103AB00004FDFB681B68DA69FB681B6822F00C02D6
:103AC000DA61FB681B68D969BB689A68FB681B6888
:103AD0000A43DA6121E07B680C2B1CD1FB68186873
:103AE000BB681968BB685A68BB68DB6800F020FDDA
:103AF000FB681B68DA69FB681B6822F44062DA61C4
:103B0000FB681B68D969BB689B681A02FB681B6865
:103B10000A43DA6101E00123FB75FB68002283F8A8
:103B20003C20FB7D18461837BD4680BD80B586B069
:103B300000AFF860B9607A600023FB75FB6893F80A
:103B40003C30012B01D10223AEE0FB68012283F857
:103B50003C207B680C2B00F29F8001A252F823F0DE
:103B6000953B0008993C0008993C0008993C0008E6
:103B7000D53B0008993C0008993C0008993C000896
:103B8000173C0008993C0008993C0008993C000843
:103B9000573C0008FB681B68B968184600F012FA29
:103BA000FB681B689A69FB681B6842F008029A610F
:103BB000FB681B689A69FB681B6822F004029A6123
:103BC000FB681B689969BB681A69FB681B680A4334
:103BD0009A6164E0FB681B68B968184600F058FAFF
:103BE000FB681B689A69FB681B6842F400629A6173
:103BF000FB681B689A69FB681B6822F480629A6103
:103C0000FB681B689969BB681B691A02FB681B6823
:103C10000A439A6143E0FB681B68B968184600F0E4
:103C2000A1FAFB681B68DA69FB681B6842F00802AE
:103C3000DA61FB681B68DA69FB681B6822F0040222
:103C4000DA61FB681B68D969BB681A69FB681B6885
:103C50000A43DA6123E0FB681B68B968184600F084
:103C6000EBFAFB681B68DA69FB681B6842F40062C8
:103C7000DA61FB681B68DA69FB681B6822F4806202
:103C8000DA61FB681B68D969BB681B691A02FB68AB
:103C90001B680A43DA6102E00123FB7500BFFB6881
:103CA000002283F83C20FB7D18461837BD4680BDB6
:103CB00080B584B000AF786039600023FB737B6807
:103CC00093F83C30012B01D10223B4E07B68012240
:103CD00083F83C207B68022283F83D207B681B68C8
:103CE0009B68BB60BB6823F07703BB60BB6823F4B1
:103CF0007F43BB607B681B68BA689A603B681B683F
:103D0000B3F5005F3ED0B3F5005F00F28780B3F5F6
:103D1000805F00F08680B3F5805F7FD8702B1AD06B
:103D2000702B7BD8602B50D0602B77D8502B3CD099
:103D3000502B73D8402B58D0402B6FD8302B64D0E9
:103D4000302B6BD8202B60D0202B67D8002B5CD079
:103D5000102B5AD062E07B6818683B6899683B6812
:103D60005A683B68DB6800F039FC7B681B689B681D
:103D7000BB60BB6843F07703BB607B681B68BA68B5
:103D80009A604FE07B6818683B6899683B685A689E
:103D90003B68DB6800F022FC7B681B689A687B68E4
:103DA0001B6842F480429A603CE07B6818683B687C
:103DB00059683B68DB681A4600F0E6FA7B681B68C6
:103DC0005021184600F0F0FB2CE07B6818683B6837
:103DD00059683B68DB681A4600F040FB7B681B684B
:103DE0006021184600F0E0FB1CE07B6818683B6827
:103DF00059683B68DB681A4600F0C6FA7B681B68A6
:103E00004021184600F0D0FB0CE07B681A683B6844
:103E10001B681946104600F0C7FB03E00123FB7343
:103E200000E000BF7B68012283F83D207B68002210
:103E300083F83C20FB7B18461037BD4680BD000050
:103E400080B485B000AF786039600023FB603B68C8
:103E50000C2B31D801A252F823F000BF913E00088C
:103E6000B93E0008B93E0008B93E00089B3E000874
:103E7000B93E0008B93E0008B93E0008A53E00085A
:103E8000B93E0008B93E0008B93E0008AF3E000840
:103E90007B681B685B6BFB600FE07B681B689B6B40
:103EA000FB600AE07B681B68DB6BFB6005E07B68FE
:103EB0001B681B6CFB6000E000BFFB6818461437F2
:103EC000BD4680BC704700BF80B483B000AF78604F
:103ED00000BF0C37BD4680BC704780B483B000AFD4
:103EE000786000BF0C37BD4680BC704780B483B09B
:103EF00000AF786000BF0C37BD4680BC7047000043
:103F000080B485B000AF786039607B681B68FB6067
:103F10007B68294A93420BD07B68B3F1804F07D06E
:103F20007B68264A934203D07B68254A934208D196
:103F3000FB6823F07003FB603B685B68FA6813431F
:103F4000FB607B681C4A93420BD07B68B3F1804FC7
:103F500007D07B68194A934203D07B68184A934282
:103F600008D1FB6823F44073FB603B68DB68FA68A8
:103F70001343FB60FB6823F080023B685B691343DB
:103F8000FB607B68FA681A603B689A687B68DA6253
:103F90003B681A687B689A627B68074A934203D140
:103FA0003B681A697B681A637B6801225A6100BF0B
:103FB0001437BD4680BC7047002C0140000400400F
:103FC0000008004080B487B000AF786039607B683B
:103FD0001B6A7B617B681B6A23F001027B681A62A3
:103FE0007B685B683B617B689B69FB60FB6823F0D7
:103FF0007003FB60FB6823F00303FB603B681B68F6
:10400000FA681343FB607B6923F002037B613B6822
:104010009B687A6913437B617B681C4A93420CD18D
:104020007B6923F008037B613B68DB687A69134393
:104030007B617B6923F004037B617B68134A9342B5
:1040400011D13B6923F480733B613B6923F4007316
:104050003B613B685B693A6913433B613B689B6921
:104060003A6913433B617B683A695A607B68FA6836
:104070009A613B685A687B685A637B687A691A62FE
:1040800000BF1C37BD4680BC704700BF002C0140FC
:1040900080B487B000AF786039607B681B6A7B6151
:1040A0007B681B6A23F010027B681A627B685B687E
:1040B0003B617B689B69FB60FB6823F4E043FB602A
:1040C000FB6823F44073FB603B681B681B02FA68C3
:1040D0001343FB607B6923F020037B613B689B6893
:1040E0001B017A6913437B617B681D4A93420DD1A2
:1040F0007B6923F080037B613B68DB681B017A6985
:1041000013437B617B6923F040037B617B68144A26
:10411000934213D13B6923F480633B613B6923F4F1
:1041200000633B613B685B699B003A6913433B61F9
:104130003B689B699B003A6913433B617B683A6922
:104140005A607B68FA689A613B685A687B689A6330
:104150007B687A691A6200BF1C37BD4680BC704715
:10416000002C014080B487B000AF786039607B6874
:104170001B6A7B617B681B6A23F480727B681A620E
:104180007B685B683B617B68DB69FB60FB6823F0F5
:104190007003FB60FB6823F00303FB603B681B6854
:1041A000FA681343FB607B6923F400737B613B680F
:1041B0009B681B027A6913437B617B681D4A9342AB
:1041C0000DD17B6923F400637B613B68DB681B02D4
:1041D0007A6913437B617B6923F480637B617B682D
:1041E000144A934213D13B6923F480533B613B69EA
:1041F00023F400533B613B685B691B013A6913433D
:104200003B613B689B691B013A6913433B617B68D7
:104210003A695A607B68FA68DA613B685A687B6879
:10422000DA637B687A691A6200BF1C37BD4680BCBE
:10423000704700BF002C014080B487B000AF7860A9
:1042400039607B681B6A3B617B681B6A23F4805280
:104250007B681A627B685B687B617B68DB69FB60FB
:10426000FB6823F4E043FB60FB6823F44073FB60CE
:104270003B681B681B02FA681343FB603B6923F42D
:1042800000533B613B689B681B033A6913433B61E6
:104290007B680F4A934209D17B6923F480437B6199
:1042A0003B685B699B017A6913437B617B687A6930
:1042B0005A607B68FA68DA613B685A687B681A64FE
:1042C0007B683A691A6200BF1C37BD4680BC7047E4
:1042D000002C014080B487B000AFF860B9607A600C
:1042E0003B60FB681B6A3B61FB681B6A23F00102B1
:1042F000FB681A62FB689B697B61FB681F4A9342FB
:104300000BD0FB68B3F1804F07D0FB681C4A934287
:1043100003D0FB681B4A934201D1012300E0002334
:10432000002B08D07B6923F003037B617A697B68EB
:1043300013437B6103E07B6943F001037B617B698D
:1043400023F0F0037B613B681B01DBB27A69134306
:104350007B613B6923F00A033B61BB6803F00A03FE
:104360003A6913433B61FB687A699A61FB683A6971
:104370001A6200BF1C37BD4680BC7047002C01404C
:10438000000400400008004080B487B000AFF8602F
:10439000B9607A60FB681B6A7B61FB681B6A23F06B
:1043A0000102FB681A62FB689B693B613B6923F071
:1043B000F0033B617B681B013A6913433B617B69F6
:1043C00023F00A037B617A69BB6813437B61FB6856
:1043D0003A699A61FB687A691A6200BF1C37BD4668
:1043E00080BC704780B487B000AFF860B9607A6075
:1043F0003B60FB681B6A7B61FB681B6A23F0100251
:10440000FB681A62FB689B693B613B6923F440735C
:104410003B617B681B023A6913433B613B6923F4B0
:1044200070433B613B681B039BB23A6913433B619A
:104430007B6923F0A0037B61BB681B0103F0A00331
:104440007A6913437B61FB683A699A61FB687A6910
:104450001A6200BF1C37BD4680BC704780B487B06D
:1044600000AFF860B9607A60FB681B6A7B61FB682B
:104470001B6A23F01002FB681A62FB689B693B61B0
:104480003B6923F470433B617B681B033A69134328
:104490003B617B6923F0A0037B61BB681B017A69E8
:1044A00013437B61FB683A699A61FB687A691A6217
:1044B00000BF1C37BD4680BC704780B487B000AFDA
:1044C000F860B9607A603B60FB681B6A7B61FB68DF
:1044D0001B6A23F48072FB681A62FB68DB693B612C
:1044E0003B6923F003033B613A697B6813433B61FB
:1044F0003B6923F0F0033B613B681B01DBB23A6987
:1045000013433B617B6923F400737B61BB681B022F
:1045100003F400737A6913437B61FB683A69DA61DB
:10452000FB687A691A6200BF1C37BD4680BC7047C1
:1045300080B487B000AFF860B9607A603B60FB6818
:104540001B6A7B61FB681B6A23F48052FB681A625A
:10455000FB68DB693B613B6923F440733B617B682B
:104560001B023A6913433B613B6923F470433B618F
:104570003B681B039BB23A6913433B617B6923F49D
:1045800000537B61BB681B0303F400537A69134338
:104590007B61FB683A69DA61FB687A691A6200BF7D
:1045A0001C37BD4680BC704780B485B000AF7860D2
:1045B00039607B689B68FB60FB6823F07003FB60DD
:1045C0003A68FB68134343F00703FB607B68FA68B3
:1045D0009A6000BF1437BD4680BC704780B487B076
:1045E00000AFF860B9607A603B60FB689B687B61F4
:1045F0007B6923F47F437B613B681A027B681A4323
:10460000BB6813437A6913437B61FB687A699A60DC
:1046100000BF1C37BD4680BC704780B487B000AF78
:10462000F860B9607A60BB6803F01F03012202FAE8
:1046300003F37B61FB681A6A7B69DB431A40FB6802
:104640001A62FB681A6ABB6803F01F03796801FAF3
:1046500003F31A43FB681A6200BF1C37BD4680BCD7
:104660007047000080B485B000AF786039607B6827
:1046700093F83C30012B01D1022346E07B680122F4
:1046800083F83C207B68022283F83D207B681B680E
:104690005B68FB607B681B689B68BB60FB6823F002
:1046A0007003FB603B681B68FA681343FB607B6820
:1046B0001B68FA685A607B681B68164A93420ED0E2
:1046C0007B681B68B3F1804F09D07B681B68124A76
:1046D000934204D07B681B68104A93420CD1BB689C
:1046E00023F08003BB603B685B68BA681343BB6020
:1046F0007B681B68BA689A607B68012283F83D205A
:104700007B68002283F83C20002318461437BD46FE
:1047100080BC7047002C01400004004000080040AD
:1047200080B483B000AF786000BF0C37BD4680BC5A
:10473000704780B483B000AF786000BF0C37BD46CF
:1047400080BC704780B582B000AF78607B68002B7A
:1047500001D1012342E07B6893F84130DBB2002BAA
:1047600006D17B68002283F840207868FDF79AFC28
:104770007B68242283F841207B681B68DA687B68A9
:104780001B6822F40052DA60786800F0C5FD7B688F
:104790001B681A697B681B6822F490421A617B6867
:1047A0001B685A697B681B6822F02A025A617B6881
:1047B0001B68DA687B681B6842F40052DA607B6829
:1047C00000225A647B68202283F841207B682022E3
:1047D00083F842207B6800225A630023184608377A
:1047E000BD4680BD80B58AB002AFF860B9603B605D
:1047F0001346FB8000237B61FB6893F84130DBB2FA
:10480000202B6DD1BB68002B02D0FB88002B01D17F
:10481000012366E0FB6800225A64FB68212283F8CA
:104820004120FDF751FD7861FB68FA889A84FB68A6
:10483000FA88DA84FB689B68B3F5805F08D1FB686F
:104840001B69002B04D10023FB61BB68BB6103E043
:10485000BB68FB610023BB612AE03B6800937B6976
:1048600000228021F86800F014FB0346002B01D0E1
:10487000032336E0FB69002B0BD1BB691B881A466A
:10488000FB681B68C2F308025A60BB690233BB6154
:1048900007E0FB691A78FB681B685A60FB69013303
:1048A000FB61FB68DB8C9BB2013B9AB2FB68DA844C
:1048B000FB68DB8C9BB2002BCFD13B6800937B69FC
:1048C00000224021F86800F0E4FA0346002B01D0F2
:1048D000032306E0FB68202283F84120002300E048
:1048E000022318462037BD4680BD80B584B000AF96
:1048F000F860B9601346FB80FB6893F84230DBB286
:10490000202B12D1BB68002B02D0FB88002B01D1D9
:1049100001230BE0FB6800221A63FB881A46B96882
:10492000F86800F024FB034600E002231846103725
:10493000BD4680BD80B5BAB000AF78607B681B68AB
:104940001B68C7F8E4307B681B68DB68C7F8E03099
:104950007B681B685B69C7F8DC300023C7F8D83078
:104960000023C7F8D430D7F8E43003F00F03C7F8BA
:10497000D830D7F8D830002B0FD1D7F8E43003F077
:104980002003002B09D0D7F8E03003F02003002BE0
:1049900003D0786800F001FC5BE2D7F8D830002B38
:1049A00000F0DE80D7F8DC3003F00103002B06D1E5
:1049B000D7F8E03003F49073002B00F0D180D7F8E3
:1049C000E43003F00103002B0BD0D7F8E03003F400
:1049D0008073002B05D07B685B6C43F001027B6821
:1049E0005A64D7F8E43003F00403002B0BD0D7F857
:1049F000DC3003F00103002B05D07B685B6C43F0D7
:104A000002027B685A64D7F8E43003F00203002BFB
:104A10000BD0D7F8DC3003F00103002B05D07B6806
:104A20005B6C43F004027B685A64D7F8E43003F00F
:104A30000803002B11D0D7F8E03003F02003002B3F
:104A400005D1D7F8DC3003F00103002B05D07B68DB
:104A50005B6C43F008027B685A647B685B6C002BDC
:104A600000F0F281D7F8E43003F02003002B08D0E7
:104A7000D7F8E03003F02003002B02D0786800F074
:104A80008CFB7B681B685B6903F04003002B14BF41
:104A900001230023DBB2C7F8D4307B685B6C03F0E2
:104AA0000803002B03D1D7F8D430002B4FD07868FF
:104AB00000F096FA7B681B685B6903F04003002BEB
:104AC00041D07B681B681433C7F89C30D7F89C3002
:104AD00053E8003FC7F89830D7F8983023F04003E8
:104AE000C7F8D0307B681B681433D7F8D020C7F8DC
:104AF000A820C7F8A430D7F8A410D7F8A82041E818
:104B00000023C7F8A030D7F8A030002BD9D17B689C
:104B1000DB6B002B13D07B68DB6B7E4A5A637B68B0
:104B2000DB6B1846FDF722FD0346002B16D07B6891
:104B3000DB6B5B6B7A68D26B104698470EE0786847
:104B400000F093F90AE0786800F08FF906E07868E1
:104B500000F08BF97B6800225A6475E100BF73E1B5
:104B60007B681B6B012B40F04F81D7F8E43003F0DA
:104B70001003002B00F04881D7F8E03003F0100359
:104B8000002B00F041810023BB607B681B681B6821
:104B9000BB607B681B685B68BB60BB687B681B682D
:104BA0005B6903F04003002B00F0B6807B68DB6B91
:104BB0001B685B68A7F8BE30B7F8BE30002B00F06A
:104BC00045817B689B8DB7F8BE209A4280F03E817C
:104BD0007B68B7F8BE20DA857B68DB6B9B69202B8E
:104BE00000F088807B681B680C33C7F88830D7F8E2
:104BF000883053E8003FC7F88430D7F8843023F476
:104C00008073C7F8B8307B681B680C33D7F8B820BE
:104C1000C7F89420C7F89030D7F89010D7F89420B0
:104C200041E80023C7F88C30D7F88C30002BD9D15D
:104C30007B681B6814337B677B6F53E8003F3B67DF
:104C40003B6F23F00103C7F8B4307B681B68143353
:104C5000D7F8B420C7F88020FB67F96FD7F8802019
:104C600041E80023BB67BB6F002BE1D17B681B6869
:104C700014333B663B6E53E8003FFB65FB6D23F04E
:104C80004003C7F8B0307B681B681433D7F8B020F6
:104C9000FA66BB66B96EFA6E41E800237B667B6EEE
:104CA000002BE3D17B68202283F842207B6800221E
:104CB0001A637B681B680C33FB64FB6C53E8003F92
:104CC000BB64BB6C23F01003C7F8AC307B681B6877
:104CD0000C33D7F8AC20BA657B65796DBA6D41E8C5
:104CE00000233B653B6D002BE3D17B68DB6B1846F3
:104CF000FDF701FC7B6802225A637B689A8D7B6812
:104D0000DB8D9BB2D31A9BB21946786800F0B6F8D7
:104D10009CE000BFA55000087B689A8D7B68DB8D06
:104D20009BB2D31AA7F8CE307B68DB8D9BB2002BE9
:104D300000F08E80B7F8CE30002B00F089807B68C1
:104D40001B680C33BB63BB6B53E8003F7B637B6B1F
:104D500023F49073C7F8C8307B681B680C33D7F80E
:104D6000C8207A643B64396C7A6C41E80023FB63A9
:104D7000FB6B002BE3D17B681B6814337B627B6A7F
:104D800053E8003F3B623B6A23F00103C7F8C4309D
:104D90007B681B681433D7F8C4203A63FB62F96A56
:104DA0003A6B41E80023BB62BB6A002BE3D17B680E
:104DB000202283F842207B6800221A637B681B68EC
:104DC0000C333B613B6953E8003FFB60FB6823F019
:104DD0001003C7F8C0307B681B680C33D7F8C020BD
:104DE000FA61BB61B969FA6941E800237B617B69BB
:104DF000002BE3D17B6802225A63B7F8CE30194604
:104E0000786800F03BF823E0D7F8E43003F0800343
:104E1000002B09D0D7F8E03003F08003002B03D03B
:104E2000786800F053F914E0D7F8E43003F0400359
:104E3000002B0ED0D7F8E03003F04003002B08D051
:104E4000786800F092F904E000BF02E000BF00E0E3
:104E500000BFE837BD4680BD80B483B000AF786046
:104E600000BF0C37BD4680BC704780B483B000AF34
:104E7000786000BF0C37BD4680BC704780B483B0FB
:104E800000AF78600B467B8000BF0C37BD4680BC0E
:104E9000704780B590B000AFF860B9603B601346D2
:104EA000FB7150E0BB6CB3F1FF3F4CD0BB6C002BEF
:104EB00007D0FDF709FA02463B68D31ABA6C9A424A
:104EC00041D2FB681B680C33BB62BB6A53E8003FEE
:104ED0007B627B6A23F4D073FB63FB681B680C3333
:104EE000FA6B7A633B63396B7A6B41E80023FB62B0
:104EF000FB6A002BE5D1FB681B6814337B617B697F
:104F000053E8003F3B613B6923F00103BB63FB684F
:104F10001B681433BA6B3A62FB61F9693A6A41E87B
:104F20000023BB61BB69002BE5D1FB68202283F81D
:104F30004120FB68202283F84220FB68002283F88E
:104F4000402003230FE0FB681B681A68BB6813400E
:104F5000BA689A420CBF01230023DBB21A46FB79E0
:104F60009A429FD0002318464037BD4680BD80B48A
:104F700085B000AFF860B9601346FB80FB68BA6883
:104F80009A62FB68FA889A85FB68FA88DA85FB687A
:104F900000225A64FB68222283F84220FB681B69C6
:104FA000002B07D0FB681B68DA68FB681B6842F4BB
:104FB0008072DA60FB681B685A69FB681B6842F004
:104FC00001025A61FB681B68DA68FB681B6842F0E3
:104FD0002002DA60002318461437BD4680BC7047B3
:104FE00080B495B000AF78607B681B680C337B633E
:104FF0007B6B53E8003F3B633B6B23F49073FB6494
:105000007B681B680C33FA6C3A64FB63F96B3A6C8F
:1050100041E80023BB63BB6B002BE5D17B681B68B9
:1050200014333B623B6A53E8003FFB61FB6923F0AA
:105030000103BB647B681B681433BA6CFA62BB6201
:10504000B96AFA6A41E800237B627B6A002BE5D1EA
:105050007B681B6B012B19D17B681B680C33FB60D1
:10506000FB6853E8003FBB60BB6823F010037B6420
:105070007B681B680C337A6CBA617B617969BA69A9
:1050800041E800233B613B69002BE5D17B6820228E
:1050900083F842207B6800221A6300BF5437BD4664
:1050A00080BC704780B584B000AF78607B685B6A75
:1050B000FB60FB680022DA85FB680022DA84F8686E
:1050C000FFF7D3FE00BF1037BD4680BD80B485B06A
:1050D00000AF78607B6893F84130DBB2212B3ED182
:1050E0007B689B68B3F5805F14D17B681B69002BDC
:1050F00010D17B681B6AFB60FB681B881A467B68C3
:105100001B68C2F308025A607B681B6A9A1C7B68A2
:105110001A6208E07B681B6A591C7A6811621A7867
:105120007B681B685A607B68DB8C9BB2013B9BB23F
:105130007A681946D184002B0FD17B681B68DA6826
:105140007B681B6822F08002DA607B681B68DA6883
:105150007B681B6842F04002DA60002300E0022313
:1051600018461437BD4680BC704780B582B000AF8A
:1051700078607B681B68DA687B681B6822F04002F5
:10518000DA607B68202283F841207868FFF764FEAC
:10519000002318460837BD4680BD80B58CB000AFEF
:1051A00078607B6893F84230DBB2222B40F0AE800F
:1051B0007B689B68B3F5805F17D17B681B69002B08
:1051C00013D10023FB627B689B6ABB627B681B6810
:1051D0005B689BB2C3F308039AB2BB6A1A807B6810
:1051E0009B6A9A1C7B689A6226E07B689B6AFB62DA
:1051F0000023BB627B689B68B3F5805F07D07B6848
:105200009B68002B0AD17B681B69002B06D17B6849
:105210001B685B68DAB2FB6A1A7008E07B681B687F
:105220005B68DBB203F07F03DAB2FB6A1A707B685B
:105230009B6A5A1C7B689A627B68DB8D9BB2013B40
:105240009BB27A681946D185002B5DD17B681B68BB
:10525000DA687B681B6822F02002DA607B681B68D2
:10526000DA687B681B6822F48072DA607B681B68EE
:105270005A697B681B6822F001025A617B68202210
:1052800083F842207B6800225A637B681B6B012BEA
:1052900035D17B6800221A637B681B680C337B6105
:1052A0007B6953E8003F3B613B6923F010037B625D
:1052B0007B681B680C337A6A3A62FB61F9693A6A67
:1052C00041E80023BB61BB69002BE5D17B681B680B
:1052D0001B6803F01003102B0AD10023FB607B68CE
:1052E0001B681B68FB607B681B685B68FB60FB6876
:1052F0007B689B8D19467868FFF7C0FD02E07868EF
:10530000FCF72CFA002302E0002300E002231846F9
:105310003037BD4680BD000080B584B000AF7860F6
:105320007B681B681B6923F440517B68DA687B68E3
:105330001B680A431A617B689A687B681B691A4379
:105340007B685B691343BB607B681B68DB6823F485
:10535000B05323F00C037A681268B9680B43D3602A
:105360007B681B685B6923F440717B689A697B6882
:105370001B680A435A617B681B682C4A934203D11D
:10538000FDF7FEFEF86002E0FDF7E6FEF860FA6861
:1053900013469B0013449A001A447B685B689B0089
:1053A000B2FBF3F3224AA2FB03235B091901FA685B
:1053B00013469B0013449A001A447B685B689B0069
:1053C000B2FBF3F21A4BA3FB02035B09642000FB60
:1053D00003F3D31A1B013233154AA2FB03235B09E3
:1053E00003F0F0031944FA6813469B0013449A0033
:1053F0001A447B685B689B00B2FBF3F20C4BA3FB87
:1054000002035B09642000FB03F3D31A1B01323350
:10541000074AA2FB03235B0903F00F027B681B68AA
:105420000A449A6000BF1037BD4680BD0038014075
:105430001F85EB5180B500AF00224FF400410248B8
:10544000FDF7A7FA00BF80BD000C014080B500AF9A
:1054500001224FF400410248FDF79BFA00BF80BDD6
:10546000000C014080B500AF00224FF4004102481B
:10547000FDF78FFA00BF80BD000C014080B5ACB0D5
:1054800000AF0346FB7107F1940300221A605A60D3
:105490009A60DA6007F1840300221A605A609A6009
:1054A000DA6007F17C0300221A605A6007F160039A
:1054B00000221A605A609A60DA601A615A619A6131
:1054C0000023C7F8A4300023C7F8AC30002387F8C6
:1054D000AB30FB79B24A5B0113441B68B14A93427B
:1054E00008D0FB79AE4A5B01134404331B68AD4A14
:1054F00093420CD1AC4B9B69AB4A43F004039361DC
:10550000A94B9B6903F004037B617B6958E0FB793D
:10551000A34A5B0113441B68A44A934208D0FB7959
:105520009F4A5B01134404331B68A04A93420CD189
:105530009D4B9B699C4A43F0080393619A4B9B697E
:1055400003F008033B613B693AE0FB79944A5B0155
:1055500013441B68964A934208D0FB79904A5B013A
:10556000134404331B68924A93420CD18E4B9B69BF
:105570008D4A43F0100393618B4B9B6903F010033A
:10558000FB60FB681CE0FB79854A5B0113441B68E8
:10559000884A934208D0FB79814A5B011344043363
:1055A0001B68844A93420BD17F4B9B697E4A43F030
:1055B000200393617C4B9B6903F02003BB60BB68B5
:1055C000FB79774A5B01134408331B88C7F8943092
:1055D0000123C7F898300223C7F8A030FB79704A3E
:1055E0005B0113441B6807F1940211461846FDF74E
:1055F00035F8FB796A4A5B0113440A331B88C7F804
:1056000094300123C7F898300223C7F8A030FB7903
:10561000634A5B01134404331B6807F1940211468B
:105620001846FDF71BF8FB795D4A5B0113441868C7
:10563000FB795B4A5B01134408331B88002219463F
:10564000FDF7A7F9FB79564A5B0113440433186848
:10565000FB79534A5B0113440A331B880022194625
:10566000FDF797F90123C7F8AC30002387F8AB307A
:1056700009E0D7F8AC305B00C7F8AC3097F8AB3036
:10568000013387F8AB30FB79454A5B0113441C3387
:105690001B7897F8AB209A42EBD3FB79404A5B0129
:1056A000134414331B881A46434B02FB03F3194679
:1056B000FB793B4A5B01134418331B68D7F8AC20D5
:1056C00002FB03F3B1FBF3F3C7F8A430D7F8A4301F
:1056D000013BC7F8A430D7F8AC30023BC7F8AC3078
:1056E000FB792F4A5B0113440C331B68BB61D7F86D
:1056F000A430FB6100233B62D7F8AC307B6200230F
:10570000BB6280233B6307F118031846FDF76AFD6F
:105710004FF48053C7F8843007F1840207F118036F
:1057200011461846FEF7C4FA07F118031846FDF7AC
:10573000FBFD0023FB670023C7F8803007F17C02E4
:1057400007F1180311461846FEF78CFF60233B66ED
:1057500000237B660023BB6600233B67FB79104A6E
:105760005B01134410331A6807F1600107F1180355
:105770001846FEF7DBF907F118031846FCF7FEF9A7
:10578000FB79074A5B01134410331A6807F11803C9
:1057900011461846FDF720FE00BFB037BD4680BD5C
:1057A00004AC00080008014000100240000C014059
:1057B000001001400014014040420F0080B582B04B
:1057C00000AF0346FB710B46BB711346BB80BB7930
:1057D000002B1FD1FB79404A5B0113441868FB7909
:1057E0003D4A5B01134408331B8801221946FDF72B
:1057F000D0F8FB79384A5B01134404331868FB790D
:10580000354A5B0113440A331B8800221946FDF711
:10581000C0F821E0BB79012B1ED1FB792E4A5B0138
:1058200013441868FB792C4A5B01134408331B8826
:1058300000221946FDF7ADF8FB79274A5B011344B6
:1058400004331868FB79244A5B0113440A331B882C
:1058500001221946FDF79DF8FB791F4A5B011344AD
:1058600010331B68002B08D1FB791B4A5B011344E2
:105870000C331B68BA885A6329E0FB79164A5B012E
:10588000134410331B68042B08D1FB79124A5B01C7
:1058900013440C331B68BA889A6318E0FB790E4AEC
:1058A0005B01134410331B68082B08D1FB790A4AAB
:1058B0005B0113440C331B68BA88DA6307E0FB7999
:1058C000054A5B0113440C331B68BA881A6400BF95
:1058D0000837BD4680BD00BF04AC000880B582B06B
:1058E00000AF0346FB71FB792E4A5B011344186835
:1058F000FB792C4A5B01134408331B8800221946AC
:10590000FDF747F8FB79274A5B0113440433186815
:10591000FB79244A5B0113440A331B880022194691
:10592000FDF737F8FB791F4A5B01134410331B68FE
:10593000002B08D1FB791B4A5B0113440C331B6815
:1059400000225A6329E0FB79164A5B0113441033A5
:105950001B68042B08D1FB79124A5B0113440C33FA
:105960001B6800229A6318E0FB790E4A5B0113441E
:1059700010331B68082B08D1FB790A4A5B011344DA
:105980000C331B680022DA6307E0FB79054A5B01F0
:1059900013440C331B6800221A6400BF0837BD464D
:1059A00080BD00BF04AC000880B594B000AF0346D2
:1059B0003960FB7107F1400300221A605A609A6057
:1059C000DA6007F1300300221A605A609A60DA60E8
:1059D00007F1280300221A605A6007F11803002219
:1059E0001A605A609A60DA60FA79874913469B0018
:1059F00013449B000B441B68844A93420CD1844B94
:105A00009B69834A43F004039361814B9B6903F0D4
:105A100004037B617B6946E0FA797B4913469B006E
:105A200013449B000B441B687A4A93420CD1784B79
:105A30009B69774A43F008039361754B9B6903F0B8
:105A400008033B613B692EE0FA796F4913469B00DE
:105A500013449B000B441B686F4A93420CD16C4B60
:105A60009B696B4A43F010039361694B9B6903F098
:105A70001003FB60FB6816E0FA79634913469B004C
:105A800013449B000B441B68644A93420BD1604B48
:105A90009B695F4A43F0200393615D4B9B6903F070
:105AA0002003BB60BB68FA79574913469B00134437
:105AB0009B000B4404331B883B6401237B6400235D
:105AC000BB640223FB64FA794F4913469B001344DD
:105AD0009B000B441B6807F1400211461846FCF777
